{"abi":[{"type":"fallback","stateMutability":"payable"},{"type":"receive","stateMutability":"payable"},{"type":"function","name":"callDeposit","inputs":[{"name":"target","type":"address","internalType":"address"}],"outputs":[],"stateMutability":"payable"},{"type":"function","name":"callFail","inputs":[{"name":"target","type":"address","internalType":"address"}],"outputs":[],"stateMutability":"nonpayable"},{"type":"function","name":"callInternal","inputs":[{"name":"x","type":"uint256","internalType":"uint256"}],"outputs":[],"stateMutability":"nonpayable"},{"type":"function","name":"callStoreNumber","inputs":[{"name":"target","type":"address","internalType":"address"},{"name":"x","type":"uint256","internalType":"uint256"}],"outputs":[],"stateMutability":"nonpayable"},{"type":"function","name":"delegateStoreNumber","inputs":[{"name":"target","type":"address","internalType":"address"},{"name":"x","type":"uint256","internalType":"uint256"}],"outputs":[],"stateMutability":"nonpayable"},{"type":"function","name":"myNumber","inputs":[],"outputs":[{"name":"","type":"uint256","internalType":"uint256"}],"stateMutability":"view"},{"type":"function","name":"staticRead","inputs":[{"name":"target","type":"address","internalType":"address"}],"outputs":[{"name":"","type":"uint256","internalType":"uint256"}],"stateMutability":"view"},{"type":"event","name":"Log","inputs":[{"name":"message","type":"string","indexed":false,"internalType":"string"},{"name":"data","type":"bytes","indexed":false,"internalType":"bytes"}],"anonymous":false},{"type":"event","name":"Received","inputs":[{"name":"sender","type":"address","indexed":false,"internalType":"address"},{"name":"amount","type":"uint256","indexed":false,"internalType":"uint256"}],"anonymous":false}],"bytecode":{"object":"0x608060405234801561001057600080fd5b50610f43806100206000396000f3fe6080604052600436106100745760003560e01c8063820a444f1161004e578063820a444f14610160578063a0cad3a114610189578063ab06ccd3146101c6578063c50477a9146101ef576100b4565b806323fd0e40146100f05780635c1a32e51461011b5780635d3f13b914610144576100b4565b366100b4577f88a5966d370b9919b20f3e2c13ff65706f196a4e32cc2c12bf57088f8852587433346040516100aa9291906108fe565b60405180910390a1005b7f381e6feca73f11fec6ca464f9d2a06ae1bb0ee33a55355e128d2d3aca53cc5f46000366040516100e69291906109e2565b60405180910390a1005b3480156100fc57600080fd5b50610105610218565b6040516101129190610a19565b60405180910390f35b34801561012757600080fd5b50610142600480360381019061013d9190610a65565b61021e565b005b61015e60048036038101906101599190610a65565b610321565b005b34801561016c57600080fd5b5061018760048036038101906101829190610abe565b610455565b005b34801561019557600080fd5b506101b060048036038101906101ab9190610a65565b610592565b6040516101bd9190610a19565b60405180910390f35b3480156101d257600080fd5b506101ed60048036038101906101e89190610abe565b6106e0565b005b3480156101fb57600080fd5b5061021660048036038101906102119190610afe565b610859565b005b60005481565b6000808273ffffffffffffffffffffffffffffffffffffffff166040516024016040516020818303038152906040527fa9cc4718000000000000000000000000000000000000000000000000000000007bffffffffffffffffffffffffffffffffffffffffffffffffffffffff19166020820180517bffffffffffffffffffffffffffffffffffffffffffffffffffffffff83818316178352505050506040516102c89190610ba5565b6000604051808303816000865af19150503d8060008114610305576040519150601f19603f3d011682016040523d82523d6000602084013e61030a565b606091505b50915091508161031c57805160208201fd5b505050565b60008173ffffffffffffffffffffffffffffffffffffffff16346040516024016040516020818303038152906040527fd0e30db0000000000000000000000000000000000000000000000000000000007bffffffffffffffffffffffffffffffffffffffffffffffffffffffff19166020820180517bffffffffffffffffffffffffffffffffffffffffffffffffffffffff83818316178352505050506040516103cb9190610ba5565b60006040518083038185875af1925050503d8060008114610408576040519150601f19603f3d011682016040523d82523d6000602084013e61040d565b606091505b5050905080610451576040517f08c379a000000000000000000000000000000000000000000000000000000000815260040161044890610c08565b60405180910390fd5b5050565b60008273ffffffffffffffffffffffffffffffffffffffff168260405160240161047f9190610a19565b6040516020818303038152906040527fb6339418000000000000000000000000000000000000000000000000000000007bffffffffffffffffffffffffffffffffffffffffffffffffffffffff19166020820180517bffffffffffffffffffffffffffffffffffffffffffffffffffffffff83818316178352505050506040516105099190610ba5565b600060405180830381855af49150503d8060008114610544576040519150601f19603f3d011682016040523d82523d6000602084013e610549565b606091505b505090508061058d576040517f08c379a000000000000000000000000000000000000000000000000000000000815260040161058490610c74565b60405180910390fd5b505050565b60008060008373ffffffffffffffffffffffffffffffffffffffff166040516024016040516020818303038152906040527fb63d343f000000000000000000000000000000000000000000000000000000007bffffffffffffffffffffffffffffffffffffffffffffffffffffffff19166020820180517bffffffffffffffffffffffffffffffffffffffffffffffffffffffff838183161783525050505060405161063e9190610ba5565b600060405180830381855afa9150503d8060008114610679576040519150601f19603f3d011682016040523d82523d6000602084013e61067e565b606091505b5091509150816106c3576040517f08c379a00000000000000000000000000000000000000000000000000000000081526004016106ba90610ce0565b60405180910390fd5b808060200190518101906106d79190610d15565b92505050919050565b6000808373ffffffffffffffffffffffffffffffffffffffff168360405160240161070b9190610a19565b6040516020818303038152906040527fb6339418000000000000000000000000000000000000000000000000000000007bffffffffffffffffffffffffffffffffffffffffffffffffffffffff19166020820180517bffffffffffffffffffffffffffffffffffffffffffffffffffffffff83818316178352505050506040516107959190610ba5565b6000604051808303816000865af19150503d80600081146107d2576040519150601f19603f3d011682016040523d82523d6000602084013e6107d7565b606091505b50915091508161081c576040517f08c379a000000000000000000000000000000000000000000000000000000000815260040161081390610d8e565b60405180910390fd5b7f381e6feca73f11fec6ca464f9d2a06ae1bb0ee33a55355e128d2d3aca53cc5f48160405161084b9190610e33565b60405180910390a150505050565b6108628161089a565b7f381e6feca73f11fec6ca464f9d2a06ae1bb0ee33a55355e128d2d3aca53cc5f460405161088f90610eda565b60405180910390a150565b8060008190555050565b600073ffffffffffffffffffffffffffffffffffffffff82169050919050565b60006108cf826108a4565b9050919050565b6108df816108c4565b82525050565b6000819050919050565b6108f8816108e5565b82525050565b600060408201905061091360008301856108d6565b61092060208301846108ef565b9392505050565b600082825260208201905092915050565b7f66616c6c6261636b207472696767657265640000000000000000000000000000600082015250565b600061096e601283610927565b915061097982610938565b602082019050919050565b600082825260208201905092915050565b82818337600083830152505050565b6000601f19601f8301169050919050565b60006109c18385610984565b93506109ce838584610995565b6109d7836109a4565b840190509392505050565b600060408201905081810360008301526109fb81610961565b90508181036020830152610a108184866109b5565b90509392505050565b6000602082019050610a2e60008301846108ef565b92915050565b600080fd5b610a42816108c4565b8114610a4d57600080fd5b50565b600081359050610a5f81610a39565b92915050565b600060208284031215610a7b57610a7a610a34565b5b6000610a8984828501610a50565b91505092915050565b610a9b816108e5565b8114610aa657600080fd5b50565b600081359050610ab881610a92565b92915050565b60008060408385031215610ad557610ad4610a34565b5b6000610ae385828601610a50565b9250506020610af485828601610aa9565b9150509250929050565b600060208284031215610b1457610b13610a34565b5b6000610b2284828501610aa9565b91505092915050565b600081519050919050565b600081905092915050565b60005b83811015610b5f578082015181840152602081019050610b44565b83811115610b6e576000848401525b50505050565b6000610b7f82610b2b565b610b898185610b36565b9350610b99818560208601610b41565b80840191505092915050565b6000610bb18284610b74565b915081905092915050565b7f6465706f736974207669612063616c6c206661696c6564000000000000000000600082015250565b6000610bf2601783610927565b9150610bfd82610bbc565b602082019050919050565b60006020820190508181036000830152610c2181610be5565b9050919050565b7f64656c656761746563616c6c206661696c656400000000000000000000000000600082015250565b6000610c5e601383610927565b9150610c6982610c28565b602082019050919050565b60006020820190508181036000830152610c8d81610c51565b9050919050565b7f73746174696363616c6c206661696c6564000000000000000000000000000000600082015250565b6000610cca601183610927565b9150610cd582610c94565b602082019050919050565b60006020820190508181036000830152610cf981610cbd565b9050919050565b600081519050610d0f81610a92565b92915050565b600060208284031215610d2b57610d2a610a34565b5b6000610d3984828501610d00565b91505092915050565b7f63616c6c53746f72654e756d626572206661696c656400000000000000000000600082015250565b6000610d78601683610927565b9150610d8382610d42565b602082019050919050565b60006020820190508181036000830152610da781610d6b565b9050919050565b7f43414c4c2073746f72654e756d62657228290000000000000000000000000000600082015250565b6000610de4601283610927565b9150610def82610dae565b602082019050919050565b6000610e0582610b2b565b610e0f8185610984565b9350610e1f818560208601610b41565b610e28816109a4565b840191505092915050565b60006040820190508181036000830152610e4c81610dd7565b90508181036020830152610e608184610dfa565b905092915050565b7f696e7465726e616c2063616c6c20657865637574656400000000000000000000600082015250565b6000610e9e601683610927565b9150610ea982610e68565b602082019050919050565b50565b6000610ec4600083610984565b9150610ecf82610eb4565b600082019050919050565b60006040820190508181036000830152610ef381610e91565b90508181036020830152610f0681610eb7565b905091905056fea2646970667358221220f0dbb09f56647c5c25d4af88df22793a138f01a9dfac6caf8f487b8d04371a7e64736f6c634300080d0033","linkReferences":{}},"methodIdentifiers":{"callDeposit(address)":"5d3f13b9","callFail(address)":"5c1a32e5","callInternal(uint256)":"c50477a9","callStoreNumber(address,uint256)":"ab06ccd3","delegateStoreNumber(address,uint256)":"820a444f","myNumber()":"23fd0e40","staticRead(address)":"a0cad3a1"},"id":0}