{"abi":[{"type":"function","name":"deposit","inputs":[],"outputs":[],"stateMutability":"payable"},{"type":"function","name":"fail","inputs":[],"outputs":[],"stateMutability":"pure"},{"type":"function","name":"readNumber","inputs":[],"outputs":[{"name":"","type":"uint256","internalType":"uint256"}],"stateMutability":"view"},{"type":"function","name":"storeNumber","inputs":[{"name":"num","type":"uint256","internalType":"uint256"}],"outputs":[],"stateMutability":"nonpayable"},{"type":"function","name":"storedNumber","inputs":[],"outputs":[{"name":"","type":"uint256","internalType":"uint256"}],"stateMutability":"view"},{"type":"event","name":"Received","inputs":[{"name":"sender","type":"address","indexed":false,"internalType":"address"},{"name":"amount","type":"uint256","indexed":false,"internalType":"uint256"}],"anonymous":false},{"type":"event","name":"Stored","inputs":[{"name":"number","type":"uint256","indexed":false,"internalType":"uint256"}],"anonymous":false}],"bytecode":{"object":"0x608060405234801561001057600080fd5b50610364806100206000396000f3fe60806040526004361061004a5760003560e01c806309ce9ccb1461004f578063a9cc47181461007a578063b633941814610091578063b63d343f146100ba578063d0e30db0146100e5575b600080fd5b34801561005b57600080fd5b506100646100ef565b60405161007191906101ce565b60405180910390f35b34801561008657600080fd5b5061008f6100f5565b005b34801561009d57600080fd5b506100b860048036038101906100b3919061021a565b610130565b005b3480156100c657600080fd5b506100cf610171565b6040516100dc91906101ce565b60405180910390f35b6100ed61017a565b005b60005481565b6040517f08c379a0000000000000000000000000000000000000000000000000000000008152600401610127906102a4565b60405180910390fd5b806000819055507fc6d8c0af6d21f291e7c359603aa97e0ed500f04db6e983b9fce75a91c6b8da6b8160405161016691906101ce565b60405180910390a150565b60008054905090565b7f88a5966d370b9919b20f3e2c13ff65706f196a4e32cc2c12bf57088f8852587433346040516101ab929190610305565b60405180910390a1565b6000819050919050565b6101c8816101b5565b82525050565b60006020820190506101e360008301846101bf565b92915050565b600080fd5b6101f7816101b5565b811461020257600080fd5b50565b600081359050610214816101ee565b92915050565b6000602082840312156102305761022f6101e9565b5b600061023e84828501610205565b91505092915050565b600082825260208201905092915050565b7f546172676574436f6e74726163743a206661696c757265000000000000000000600082015250565b600061028e601783610247565b915061029982610258565b602082019050919050565b600060208201905081810360008301526102bd81610281565b9050919050565b600073ffffffffffffffffffffffffffffffffffffffff82169050919050565b60006102ef826102c4565b9050919050565b6102ff816102e4565b82525050565b600060408201905061031a60008301856102f6565b61032760208301846101bf565b939250505056fea2646970667358221220248eb09c2c2607d29b7fd93c794cd8dcec17803469989578b36b7b1447cead6664736f6c634300080d0033","linkReferences":{}},"methodIdentifiers":{"deposit()":"d0e30db0","fail()":"a9cc4718","readNumber()":"b63d343f","storeNumber(uint256)":"b6339418","storedNumber()":"09ce9ccb"},"id":0}