{"abi":[{"type":"function","name":"retrieve","inputs":[],"outputs":[{"name":"","type":"tuple","internalType":"struct Storage.StorageStruct","components":[{"name":"number","type":"uint256","internalType":"uint256"},{"name":"owner","type":"string","internalType":"string"}]}],"stateMutability":"view"},{"type":"function","name":"store","inputs":[{"name":"newStorage","type":"tuple","internalType":"struct Storage.StorageStruct","components":[{"name":"number","type":"uint256","internalType":"uint256"},{"name":"owner","type":"string","internalType":"string"}]}],"outputs":[],"stateMutability":"nonpayable"}],"bytecode":{"object":"0x608060405234801561001057600080fd5b506107a3806100206000396000f3fe608060405234801561001057600080fd5b50600436106100365760003560e01c80632e64cec11461003b578063ddd356b314610059575b600080fd5b610043610075565b6040516100509190610249565b60405180910390f35b610073600480360381019061006e9190610299565b61012b565b005b61007d610140565b6000604051806040016040529081600082015481526020016001820180546100a490610311565b80601f01602080910402602001604051908101604052809291908181526020018280546100d090610311565b801561011d5780601f106100f25761010080835404028352916020019161011d565b820191906000526020600020905b81548152906001019060200180831161010057829003601f168201915b505050505081525050905090565b806000818161013a919061075f565b90505050565b604051806040016040528060008152602001606081525090565b6000819050919050565b61016d8161015a565b82525050565b600081519050919050565b600082825260208201905092915050565b60005b838110156101ad578082015181840152602081019050610192565b838111156101bc576000848401525b50505050565b6000601f19601f8301169050919050565b60006101de82610173565b6101e8818561017e565b93506101f881856020860161018f565b610201816101c2565b840191505092915050565b60006040830160008301516102246000860182610164565b506020830151848203602086015261023c82826101d3565b9150508091505092915050565b60006020820190508181036000830152610263818461020c565b905092915050565b600080fd5b600080fd5b600080fd5b6000604082840312156102905761028f610275565b5b81905092915050565b6000602082840312156102af576102ae61026b565b5b600082013567ffffffffffffffff8111156102cd576102cc610270565b5b6102d98482850161027a565b91505092915050565b7f4e487b7100000000000000000000000000000000000000000000000000000000600052602260045260246000fd5b6000600282049050600182168061032957607f821691505b60208210810361033c5761033b6102e2565b5b50919050565b61034b8161015a565b811461035657600080fd5b50565b6000813561036681610342565b80915050919050565b60008160001b9050919050565b60007fffffffffffffffffffffffffffffffffffffffffffffffffffffffffffffffff6103a88461036f565b9350801983169250808416831791505092915050565b6000819050919050565b60006103e36103de6103d98461015a565b6103be565b61015a565b9050919050565b6000819050919050565b6103fd826103c8565b610410610409826103ea565b835461037c565b8255505050565b600080fd5b600080fd5b600080fd5b6000808335600160200384360303811261044357610442610417565b5b80840192508235915067ffffffffffffffff8211156104655761046461041c565b5b60208301925060018202360383131561048157610480610421565b5b509250929050565b600082905092915050565b7f4e487b7100000000000000000000000000000000000000000000000000000000600052604160045260246000fd5b60008190508160005260206000209050919050565b60006020601f8301049050919050565b600082821b905092915050565b6000600883026105257fffffffffffffffffffffffffffffffffffffffffffffffffffffffffffffffff826104e8565b61052f86836104e8565b95508019841693508086168417925050509392505050565b610550836103c8565b61056461055c826103ea565b8484546104f5565b825550505050565b600090565b61057961056c565b610584818484610547565b505050565b5b818110156105a85761059d600082610571565b60018101905061058a565b5050565b601f8211156105ed576105be816104c3565b6105c7846104d8565b810160208510156105d6578190505b6105ea6105e2856104d8565b830182610589565b50505b505050565b600082821c905092915050565b6000610610600019846008026105f2565b1980831691505092915050565b600061062983836105ff565b9150826002028217905092915050565b6106438383610489565b67ffffffffffffffff81111561065c5761065b610494565b5b6106668254610311565b6106718282856105ac565b6000601f8311600181146106a0576000841561068e578287013590505b610698858261061d565b865550610700565b601f1984166106ae866104c3565b60005b828110156106d6578489013582556001820191506020850194506020810190506106b1565b868310156106f357848901356106ef601f8916826105ff565b8355505b6001600288020188555050505b50505050505050565b610714838383610639565b505050565b60008101600083018061072b81610359565b905061073781846103f4565b505050600181016020830161074c8185610426565b610757818386610709565b505050505050565b6107698282610719565b505056fea264697066735822122078a5f93b841d62798458bd1a395e87a7b91d2997d0822e0795b18abbef37548764736f6c634300080d0033","linkReferences":{}},"methodIdentifiers":{"retrieve()":"2e64cec1","store((uint256,string))":"ddd356b3"},"id":0}